:100000000BC070C017C016C015C014C05CC012C0B1
:1000100081C010C00FC032C011241FBECFEDCDBFB4
:1000200020E0A0E6B0E001C01D92A737B207E1F7DB
:10003000C3D020C1E5CF87B38A7B87BB88B38560F7
:1000400088BB87B38A6287BBC59A84E083BF82E09E
:1000500089BF8BE886B9109261008FEF9FEF909374
:100060006400809363001092620085B7816085BF51
:100070008BB780648BBF1092660008951F920F9219
:100080000FB60F9211242F938F939F93EF93FF93AB
:1000900084B125B1E0916300F0916400EE0FFF1F81
:1000A000E959FF4F90E0922B9183808381E0809308
:1000B0006200FF91EF919F918F912F910F900FBE52
:1000C0000F901F9018951F920F920FB60F92112448
:1000D000B59902C0C59A01C0C5980F900FBE0F9088
:1000E0001F9018951F920F920FB60F9211248F93A5
:1000F000B69906C01092660088E58DB9C39A04C00F
:100100001DB8C398109266008F910F900FBE0F908C
:100110001F9018951F920F920FB60F9211248F9374
:100120009F93EF93FF938FB190916600992319F0FD
:10013000913031F132C0809365008091650080314B
:10014000C0F0809165008831A0F4E0916500F0E096
:10015000EE0FFF1FE95BFF4F80818FB9E0916500D3
:10016000F0E0EE0FFF1FE95BFF4F8181809360009D
:1001700005C0809165001FB81092600081E00AC040
:1001800090916500913011F480936100809160003E
:100190008FB982E08093660004C083E0809366009C
:1001A0001FB880E48EB9FF91EF919F918F910F90CE
:1001B0000FBE0F901F9018953EDF78944FEF5FEFC2
:1001C00080916100882301F1809163009091640027
:1001D00097FF1AC080E090E02091610030E0082E87
:1001E00002C0359527950A94E2F720FF05C0809359
:1001F00063009093640004C001968830910561F714
:100200008091630087B9369A80916200882351F10A
:1002100080916100811105C0509364004093630098
:100220001FC0809163008F5F883090F4209161003F
:10023000682F70E030E0082E02C0359527950A94AB
:10024000E2F720FFF0CF709364006093630004C076
:10025000883011F480E0EACF8091630087B9369A44
:100260001092620080916600833009F0A9CF10924D
:080270006600A6CFF894FFCF51
:00000001FF
